:020000040800F2
:1000000000040020612800088129000881290008D7
:100010008129000881290008812900088129000818
:10002000812900088129000881290008B1290008D8
:10003000812900088129000881290008912A0008E7
:1000400081290008415D000881290008415E0008FF
:100050008129000881290008415B0008715B0008C4
:10006000A15B0008D15B0008015C00088154000816
:10007000C154000801550008415500088155000889
:10008000C15500080156000881290008812900088F
:10009000812900088129000881290008315C0008B5
:1000A0008129000881290008812900088129000888
:1000B0008129000881290008812900088129000878
:1000C00081290008F1680008016A000881290008F8
:1000D0008129000881290008812900088129000858
:1000E000B15C000881290008815D000881290008B1
:1000F000812900088129000881290008415600084B
:100100008129000881290008812900088129000827
:100110008129000881290008812900088129000817
:1001200081560008C15600080157000841570008D1
:1001300081570008E15E0008C15D000881290008C0
:10014000812900088129000881290008B17400086C
:10015000C15700080158000841580008117B0008E9
:1001600081290008812900088129000881290008C7
:10017000015E000881290008812900088129000802
:08018000812900088129000813
:10019000F0B58BB004F024F90AAF02F0F9FC0A259F
:1001A0000FF01EFD4FF4A0544D4A4E4E47F8102D4F
:1001B000C4F202042B46C0F20025CFF600630121F1
:1001C000204640F21E2207956FF07F45099308955F
:1001D00006F076FA2046022140F21A2206F070FA62
:1001E00040F23A220421204606F06AFA02232383D1
:1001F0003D483E4C04F07CFC3B483146054604F04B
:10020000A7FC3668F36B9A6B22F400229A634FF4D2
:100210007A7003F025F93046354904F0F1FDF36BAF
:100220009A6B42F400229A630FF09AF90FF028FBC0
:1002300030480FF03DFB304B3049586804F058F916
:100240004FF47A7003F00CF900262A480FF050FBA7
:10025000F02140222A4B00962A4803F0A1F8F02111
:100260004022294B0096294803F09AF842224FF485
:100270000071274B0097274803F092F840224FF473
:100280002C71254B0096254803F08AF8244802A9D2
:10029000012203F0C5FB27460CE090F820300E2B1E
:1002A00019D04FF4FA71012003F08AFC01461D4871
:1002B00003F03EFC20680028EFD1D5F854321B68CB
:1002C0001B78042BE9D118484FF40B6140220FF042
:1002D0004FF93860E5E703F013F92660E1E700BF66
:1002E0007010002090140108B47C0020D0830020FE
:1002F000A0130108AC3B0020D47B0020101501089E
:10030000C1FC0008E082002081FE0008407F002040
:10031000617D0008303E0020F1FC000830800020A4
:10032000B07C00203015010820150108AFF30080D3
:1003300030B5002308E0C55C0133CC1814F8014C3B
:10034000A54201D0281B30BD9342F4D1002030BD1E
:1003500010B5002302E0CC5CC45401339342FAD1BF
:1003600010BD0000000000000000000000000000C0
:100370008218034601E003F8011B9342FBD170474A
:100380000CB410B59CB01EAB029106916FF0004109
:1003900053F8042B049107914FF6FF71ADF8161036
:1003A0004FF4027402A90193ADF8144000F090F8E4
:1003B000029B00221A701CB0BDE8104002B07047CA
:1003C0000EB400B59CB04FF40271ADF814106FF08C
:1003D00000411DAB049107914FF6FF71ADF8161067
:1003E000084953F8042B029006900868019302A96B
:1003F00000F06EF8029B00221A701CB05DF804EB4E
:1004000003B0704708080020000000000000000052
:100410000D4B70B51D680022845C2B195B7803F0CE
:100420000303012B8B5C05EB030608BF20347678B1
:1004300006F00306012E08BF2033E41A02D1013270
:10044000002BE9D1204670BD00080020000000000C
:10045000034613F8012B002AFBD1181A0138704704
:1004600070B50246007840B970BDB5420CD01C464C
:1004700013F8016B002EF8D100E00C46104612F87C
:10048000015B0DB10B46F2E72378002B08BF00207B
:1004900070BD00000000000000000000000000002F
:1004A00070B5034607E0AC4205D012F8015F002D9D
:1004B000F9D1301A70BD1E4613F8014B002CF8D04C
:1004C0004A1EF2E7000000000000000000000000EB
:1004D0002DE9F04F1C468B8903F080031BB2ABB0B3
:1004E00083460F46164683B10B6973B9402100F06D
:1004F0008FFB3860386130B90C23CBF800304FF0F7
:10050000FF33049377E340237B6100231AAD0D95FD
:100510000F930E93039607930493039B1E4613F8C1
:10052000012B22B9039BB6EB030803D11BE0252A5C
:10053000F4D1F7E7039B85E808010F9B43440F9331
:100540000E9B0133072B0E9301DC083508E058465B
:1005500039460DAA00F084FD002840F042831AAD10
:10056000049B434404933378002B00F0338301361B
:100570000022002003968DF82F004FF0FF3A0592DD
:1005800016464FF00A0804E01A4602E01C464FF0F7
:10059000FF3A039911F8013B0391632B00F09D8012
:1005A00026DC392B15DC312B80F282802B2BEBD013
:1005B00007DC232B4DD02A2B4ED0202B40F07E8100
:1005C00043E02E2B53D0302B6FD02D2B40F0768173
:1005D0004AE04F2B00F0B58003DC442B40F06E81E5
:1005E00083E0552B00F0E980582B40F0678127E02D
:1005F0006F2B00F0A8800EDC692B1ED005DC642B6D
:100600001BD0682B40F05A8161E06C2B62D06E2BBE
:1006100040F0548182E0732B00F0B38006DC702B35
:1006200000F0A280712B40F0498153E0752B00F05F
:10063000C680782B40F04281CFE08DF82F2058E023
:100640008DF82F20A74A0792CBE0002A08BF20226E
:100650009FE746F001069CE7231D2468002C0594C3
:1006600011DA604205901C4646F0040691E70399B2
:1006700011F8013B2A2B03910ED1D4F800A0231DC1
:10068000BAF1000F82DB1C4683E7039810F8013BA8
:1006900008FB0A1A039001E04FF0000AA3F13001B1
:1006A0000929F2D94AEAEA7A77E746F0800670E744
:1006B00003980021303B08FB013110F8013BA3F106
:1006C000300CBCF1090F0390F4D9059165E746F0B1
:1006D00040065EE746F010065BE7236800218DF8D0
:1006E00040308DF82F100434F2E08DF82F2046F0C2
:1006F000100616F0100F04F1040301D0226804E084
:10070000226816F0400F18BF12B2002A1C4680F271
:1007100083802D2352428DF82F307DE016F0100F8C
:100720008DF82F2004F1040300D005E0710603D5F5
:1007300022680499118002E02268049810601C4627
:10074000EBE646F0100616F0100004F1040303D0A7
:1007500022681C4600215BE016F0400101D022888F
:10076000F7E722681C4653E030238DF830307823B9
:100770008DF831305C4B2268079346F00206043452
:1007800045E023460020D3F800808DF82F00043484
:10079000BAF1000F40460CDB0021524600F038FC55
:1007A000002800F09C80C8EB0009D14500F39E8032
:1007B0009DE0FFF74DFE814699E046F0100616F0E9
:1007C000100F04F1040300D003E0720601D5228863
:1007D00000E022681C4601211AE043498DF82F20D1
:1007E000079116F0100F04F1040100D003E0700629
:1007F00001D5228800E022680C46F10707D532B106
:1008000030218DF830108DF8313046F0020602218B
:1008100000238DF82F3000E00121BAF1000FA8BFAE
:1008200026F0800612B9BAF1000F37D0012916D090
:1008300002290DF1670327D002F007013031D208F9
:100840009846197003F1FF33F6D1F007424630D5D0
:1008500030292ED09846302302F8013C29E0092A9D
:1008600003D830328DF867201EE00DF167030A20AF
:10087000B2FBF0F100FB11223032984603F8012957
:100880000A460029F4D114E002F00F010798415CF8
:100890001209984603F80119F6D10AE039B9F107AF
:1008A00005D530238DF867300DF1670801E00DF1B3
:1008B00068080DF16809C8EB09091AE08DF82F20C6
:1008C000002B00F0878100208DF840308DF82F003C
:1008D0004FF001094FF0000A0DF1400809E0D14640
:1008E000824606E06015010871150108D1464FF0F7
:1008F000000AD145ACBF4B46534606939DF82F30B6
:1009000013B1069B0133069316F00203089302D03D
:10091000069B0233069316F08403099340D1059B8E
:100920000698C0EB030CBCF1000F1FDC38E00F9AF7
:10093000944910320F920E9A0132072A85E80A0074
:100940000E9201DC08350EE0584639460DAA019397
:10095000CDF808C000F084FB019BDDF808C000283A
:1009600040F03F811AADACF1100C00E01023BCF157
:10097000100FDCDC834B85E808100F9B63440F935A
:100980000E9B0133072B0E9301DC083508E0584617
:1009900039460DAA00F064FB002840F022811AAD10
:1009A0009DF82F30BBB10DF12F032B6001236B603D
:1009B0000F9B01330F930E9B0133072B0E9301DC2A
:1009C000083508E0584639460DAA00F049FB0028D2
:1009D00040F007811AAD089BB3B10CAB2B6002232A
:1009E0006B600F9B02330F930E9B0133072B0E930B
:1009F00001DC083508E0584639460DAA00F030FB06
:100A0000002840F0EE801AAD099B802B40D1059B59
:100A10000698C0EB030CBCF1000F1FDC38E00F9A06
:100A2000594910320F920E9A0132072A85E80A00BE
:100A30000E9201DC08350EE0584639460DAA0193A6
:100A4000CDF808C000F00CFB019BDDF808C00028C1
:100A500040F0C7801AADACF1100C00E01023BCF1DF
:100A6000100FDCDC484B85E808100F9B63440F93A4
:100A70000E9B0133072B0E9301DC083508E0584626
:100A800039460DAA00F0ECFA002840F0AA801AAD11
:100A9000C9EB0A03002B19DC31E00F9AC5F804A05A
:100AA00010320F920E9A0132072A0E9201DC08359D
:100AB0000AE0584639460DAA019300F0D1FA019B8D
:100AC000002840F08E801AAD103B01E04FF0100A74
:100AD0002D4A102B2A60E0DC0F9A6B60D3180F931D
:100AE0000E9B0133072B0E9301DC083507E05846B7
:100AF00039460DAA00F0B4FA002872D11AAD0F9B46
:100B00004B440F930E9B0133072B85E800030E9394
:100B100002DC05F1080307E0584639460DAA00F04B
:100B20009FFA00285DD11AAB72070BD4049B06997B
:100B300005988142ACBF5B181B1804930F9B002BD8
:100B40003CD03FE0059A0698C0EB0208B8F1000FD0
:100B50001CDCEBE70F9A1E6010320F920E9A5D605C
:100B60000132072A0E9201DC083307E05846394665
:100B70000DAA00F075FA002833D11AABA8F11008BD
:100B800006E000BFA0FE0008B0FE00081C4E1025C5
:100B9000B8F1100FDEDC1A4A83E804010F9B4344CE
:100BA0000F930E9B0133072B0E93BFDD584639463A
:100BB0000DAA00F055FA0028B8D012E000210E91DD
:100BC0001AADAAE4584639460DAA00F049FA0028A1
:100BD000F4D006E00F9B23B1584639460DAA00F029
:100BE0003FFABB89049A03F040031BB2002B18BFE5
:100BF0004FF0FF32049204982BB0BDE8F08F00BF95
:100C0000A0FE00080000000000000000000000003E
:100C10002DE9F04701F10B04162C064603D934F0F8
:100C2000070401D502E010248C4202D20C23336069
:100C3000D3E1304600F0FCF9B4F5FC7F14D2A04BB0
:100C4000E20803EBC203DD689D4205D105F108030C
:100C50006D6902329D4244D0EA68A9686B68CA6037
:100C600023F00303916059E0620A01D1E2081BE01E
:100C7000042A02D8A209383216E0142A01D85B32BD
:100C800012E0542A02D8220B6E320DE0B2F5AA7F90
:100C900002D8E20B773207E040F254539A4202D86E
:100CA000A20C7C3200E07E22854B03EBC203DD68A0
:100CB00014E0696821F00301081B0F2801DD013AE7
:100CC0000EE0002809DBEB68AA68D3609A606B1815
:100CD0005A6842F001025A608BE1ED689D42E8D10A
:100CE000013277490D6901F10807BD4267D06B6891
:100CF00023F00303181B0F280CDD2B1940F0010211
:100D000044F001046C604B610B61DF609F605A60CE
:100D100018506EE100284F610F6101DBEB18D7E737
:100D2000B3F5007F0FD2DB089810012707FA00F710
:100D300048683843486001EBC301E9608B68AB60E9
:100D4000DD608D603BE0580A042802D898093830ED
:100D500016E0142801D85B3012E0542802D8180B92
:100D60006E300DE0B0F5AA7F02D8D80B773007E0DF
:100D700040F25451884202D8980C7C3000E07E202A
:100D8000DFF83CE10EEBC007B968B9420DD1012391
:100D9000801003FA00F0DEF804300343CEF804308C
:100DA0000B4608E08968B94204D0486820F0030087
:100DB0008342F7D3CB68EB60A960CD609D600121D1
:100DC000931001FA03F33E4949688B425DD80B4208
:100DD00005D122F003025B0004320B42FBD03848FD
:100DE00000EBC20CE6461746DEF80C502CE06968B2
:100DF00021F00308C4EB08010F2913DD2B1944F07F
:100E00000104EA686C6055F8080F5950C2609060A0
:100E10002B4A536113610832DA609A6041F0010293
:100E20005A600CE000290EDB05EB08035A6842F01B
:100E300001025A60EB6855F8082FD3609A6030467B
:100E400000F0F7F8D9E0ED687545D0D10137B90762
:100E500005F1080EC8D16146950704D1426822EA1F
:100E60000302426005E0A1F108050968013AA942C0
:100E7000F2D041685B008B4207D833B13A4601E0BB
:100E800004325B000B42ABD1FAE70D4B9F687A68E6
:100E900022F00309A1451A4604D3C4EB09030F2B22
:100EA00000F39D80074B1B6804EB0308D2F808345D
:100EB000013307EB090A07D108F110080CE000BF65
:100EC000380C00207810002008F5805808F10F0831
:100ED00028F47F6828F00F083046414600F0B0F84B
:100EE000421C05466BD0504502D2454B9F4266D10D
:100EF000444A5368554543445360414A07D1290544
:100F000005D19368C84448F001025A604CE0D2F819
:100F10000824013203D13A4BC3F8085404E0CAEB69
:100F2000050A384A5344536015F007031CBFC3F148
:100F30000803ED18A84403F580534FEA0858A3EBC3
:100F400018584146304600F07BF82E4A431C53683F
:100F500004BF4FF00008284643445360401B284B11
:100F6000404440F001009F429D6068601CD0B9F190
:100F70000F0F02D801236B6021E07B68A9F10C09F7
:100F800029F0070903F0010349EA03037B6007EB3B
:100F900009030522B9F10F0F5A609A6004D930464F
:100FA00007F1080101F022F8164A5368D16A8B4212
:100FB00088BFD362126B934284BF124A1363104BF3
:100FC0009B685A6822F00302A242C4EB020301D3D9
:100FD0000F2B04DC304600F02CF800250DE0084A09
:100FE000956844F001012C1943F001036960946095
:100FF0006360304600F01DF808352846BDE8F087EC
:10100000380C0020781000200000000000000000D4
:1010100010B5C9B20346821803E0047801338C424C
:1010200003D093421846F8D1002010BD0000000004
:101030007047704700000000000000000000000042
:1010400038B5064C002305460846236000F0DAFD5B
:10105000431C02D1236803B12B6038BDD483002028
:101060002DE9F74F07469068D2F800800C461546E8
:1010700040B950606FE0D8F800A0D8F8046008F1DB
:10108000080802E04FF0000A5646002EF3D0A3688D
:101090009E4241D3A28912F4906F3BD0236821690C
:1010A000C1EB0309636903204343022093FBF0FB78
:1010B00002F4806209F101039B1912B29B4538BF0B
:1010C0009B4638468AB15946FFF7A2FD00B915E0A4
:1010D0004A4621690190FFF73BF9A289019B22F45E
:1010E000906242F08002A2810BE05A4601F098F82B
:1010F000034630B93846216900F078FF0C233B6085
:1011000020E02361C9EB0B024B442360C4F814B008
:101110003346A2609E4200D233461A4620680193AD
:10112000514601F05DF8A268019BD21AA2602268C4
:10113000D3182360AB689E1BAE60002E9BD16E60FF
:10114000304608E0A38943F04003A3810023AB604D
:101150006B604FF0FF30BDE8FE8F2DE9F04F1C466D
:101160008B8903F080031BB2ABB083460F46164653
:1011700083B10B6973B94021FFF74AFD38603861CC
:1011800030B90C23CBF800304FF0FF33049378E3F1
:1011900040237B6100231AAD0D950F930E930396A8
:1011A00007930493039B1E4613F8012B22B9039B5C
:1011B000B6EB030803D11BE0252AF4D1F7E7039B24
:1011C00085E808010F9B43440F930E9B0133072BC7
:1011D0000E9301DC083508E0584639460DAAFFF7A2
:1011E0003FFF002840F043831AAD049B434404931F
:1011F0003378002B00F03483013600220020039660
:101200008DF82F004FF0FF3A059216464FF00A086E
:1012100004E01A4602E01C464FF0FF3A039911F829
:10122000013B0391632B00F09D8026DC392B15DCFC
:10123000312B80F282802B2BEBD007DC232B4DD07F
:101240002A2B4ED0202B40F07E8143E02E2B53D012
:10125000302B6FD02D2B40F076814AE04F2B00F0E1
:10126000B58003DC442B40F06E8183E0552B00F009
:10127000E980582B40F0678127E06F2B00F0A880B1
:101280000EDC692B1ED005DC642B1BD0682B40F0D4
:101290005A8161E06C2B62D06E2B40F0548182E069
:1012A000732B00F0B38006DC702B00F0A280712B52
:1012B00040F0498153E0752B00F0C680782B40F058
:1012C0004281CFE08DF82F2058E08DF82F20A84ADA
:1012D0000792CBE0002A08BF20229FE746F00106D4
:1012E0009CE7231D2468002C059411DA60420590C8
:1012F0001C4646F0040691E7039911F8013B2A2B9E
:1013000003910ED1D4F800A0231DBAF1000F82DBA7
:101310001C4683E7039810F8013B08FB0A1A039068
:1013200001E04FF0000AA3F130010929F2D94AEA9D
:10133000EA7A77E746F0800670E703980021303BB1
:1013400008FB013110F8013BA3F1300CBCF1090F8F
:101350000390F4D9059165E746F040065EE746F054
:1013600010065BE7236800218DF840308DF82F10C0
:101370000434F2E08DF82F2046F0100616F0100F1E
:1013800004F1040301D0226804E0226816F0400F43
:1013900018BF12B2002A1C4680F283802D235242CD
:1013A0008DF82F307DE016F0100F8DF82F2004F10E
:1013B000040300D005E0710603D52268049911806A
:1013C00002E02268049810601C46EBE646F0100626
:1013D00016F0100004F1040303D022681C4600211B
:1013E0005BE016F0400101D02288F7E722681C4636
:1013F00053E030238DF8303078238DF831305D4B59
:101400002268079346F00206043445E02346002094
:10141000D3F800808DF82F000434BAF1000F404655
:101420000CDB00215246FFF7F3FD002800F09C8002
:10143000C8EB0009D14500F39F809EE0FFF708F854
:1014400081469AE046F0100616F0100F04F10403EE
:1014500000D003E0720601D5228800E022681C4615
:1014600001211AE043498DF82F20079116F0100F43
:1014700004F1040100D003E0700601D5228800E0E9
:1014800022680C46F10707D532B130218DF83010B3
:101490008DF8313046F00206022100238DF82F30FE
:1014A00000E00121BAF1000FA8BF26F0800612B9B2
:1014B000BAF1000F37D0012916D002290DF16703C8
:1014C00027D002F007013031D2089846197003F195
:1014D000FF33F6D1F007424630D530292ED098465A
:1014E000302302F8013C29E0092A03D830328DF874
:1014F00067201EE00DF167030A20B2FBF0F100FB4C
:1015000011223032984603F801290A460029F4D105
:1015100014E002F00F010798415C1209984603F8A5
:101520000119F6D10AE039B9F10705D530238DF854
:1015300067300DF1670801E00DF168080DF16809E9
:10154000C8EB09091BE08DF82F20002B00F08881E3
:1015500000208DF840308DF82F004FF001094FF03A
:10156000000A0DF140080AE0D146824607E000BFBC
:101570006015010871150108D1464FF0000AD145E8
:10158000ACBF4B46534606939DF82F3013B1069BD4
:101590000133069316F00203089302D0069B023330
:1015A000069316F08403099340D1059B0698C0EB7F
:1015B000030CBCF1000F1FDC38E00F9A9449103285
:1015C0000F920E9A0132072A85E80A000E9201DC7A
:1015D00008350EE0584639460DAA0193CDF808C0EB
:1015E000FFF73EFD019BDDF808C0002840F03F8179
:1015F0001AADACF1100C00E01023BCF1100FDCDCD4
:10160000834B85E808100F9B63440F930E9B0133B7
:10161000072B0E9301DC083508E0584639460DAA21
:10162000FFF71EFD002840F022811AAD9DF82F30F3
:10163000BBB10DF12F032B6001236B600F9B0133B6
:101640000F930E9B0133072B0E9301DC083508E046
:10165000584639460DAAFFF703FD002840F00781E0
:101660001AAD089BB3B10CAB2B6002236B600F9BD0
:1016700002330F930E9B0133072B0E9301DC0835C9
:1016800008E0584639460DAAFFF7EAFC002840F06A
:10169000EE801AAD099B802B40D1059B0698C0EBCC
:1016A000030CBCF1000F1FDC38E00F9A59491032CF
:1016B0000F920E9A0132072A85E80A000E9201DC89
:1016C00008350EE0584639460DAA0193CDF808C0FA
:1016D000FFF7C6FC019BDDF808C0002840F0C7807A
:1016E0001AADACF1100C00E01023BCF1100FDCDCE3
:1016F000484B85E808100F9B63440F930E9B013302
:10170000072B0E9301DC083508E0584639460DAA30
:10171000FFF7A6FC002840F0AA801AADC9EB0A0327
:10172000002B19DC31E00F9AC5F804A010320F929B
:101730000E9A0132072A0E9201DC08350AE058465B
:1017400039460DAA0193FFF78BFC019B002840F05E
:101750008E801AAD103B01E04FF0100A2D4A102B7D
:101760002A60E0DC0F9A6B60D3180F930E9B013355
:10177000072B0E9301DC083507E0584639460DAAC1
:10178000FFF76EFC002872D11AAD0F9B4B440F93EC
:101790000E9B0133072B85E800030E9302DC05F155
:1017A000080307E0584639460DAAFFF759FC002800
:1017B0005DD11AAB72070BD4049B06990598814240
:1017C000ACBF5B181B1804930F9B002B3CD03FE071
:1017D000059A0698C0EB0208B8F1000F1CDCEBE795
:1017E0000F9A1E6010320F920E9A5D600132072A26
:1017F0000E9201DC083307E0584639460DAAFFF780
:101800002FFC002833D11AABA8F1100806E000BF66
:10181000E0FF0008F0FF00081C4E1025B8F1100F83
:10182000DEDC1A4A83E804010F9B43440F930E9BAE
:101830000133072B0E93BFDD584639460DAAFFF73B
:101840000FFC0028B8D012E000210E911AADA9E4D7
:10185000584639460DAAFFF703FC0028F4D006E0ED
:101860000F9B23B1584639460DAAFFF7F9FBBB89F8
:10187000049A03F040031BB2002B18BF4FF0FF3255
:10188000049204982BB0BDE8F08F00BFE0FF000881
:101890000549002351F83320824202D00133142B32
:1018A000F8D11846704700BFAC100020F8B50446C8
:1018B00000F07EFA00270546132630463946ABBEB7
:1018C00006462E602046F8BD4FF0FF30FFF7EEBF12
:1018D0000E4B10B50446186818B1836B0BB900F0B5
:1018E000B9FA1CB90A4BD3F8A00010BD012C03D1E2
:1018F000074BD3F8A40010BD022C03D1044BD3F83E
:10190000A80010BDA4F1200010BD00BF08080020F1
:10191000AC1000202DE9FF47DFF864904FF003087A
:101920000026CDF804900125CDF80C8001AF029679
:1019300028463946ABBE8246104CCDF804900423AD
:10194000CDF80C80C4F8A0A0029328463946ABBE5F
:1019500005464FF0FF31C4F8A850C4F8A4503246F1
:10196000A1500832A02A054BFAD1D3F8A0209D60DF
:101970001A6000225A60DA60BDE8FF87AC100020D0
:10198000A015010830B585B00C461546FFF7A0FF3D
:1019900002940395019001AD062420462946ABBE72
:1019A0000446204605B030BDF8B50F46144606463D
:1019B000FFF78EFFFFF76CFF39460546224630469B
:1019C000FFF7E0FF002805DA4FF0FF30BDE8F840F0
:1019D000FFF76CBF142D06D0044B03EBC505221A8C
:1019E0006B689B186B60201AF8BD00BFAC1000201C
:1019F0002DE9F34116460C460746FFF769FF80467E
:101A0000FFF746FF012E05460AD1142802D14FF0F8
:101A1000FF3427E0154B03EBC0035B68E4180BE0D1
:101A2000022E09D102AE46F8088D4FF00C08404650
:101A30003146ABBE0646A4193846FFF749FF0A26D1
:101A40008DE811006F4630463946ABBE0646142D70
:101A500006D0002EDBD1054B03EBC5056C6001E021
:101A6000002ED4D12046BDE8FC8100BFAC10002080
:101A700008B5FFF7BDFF431C03D1BDE80840FFF7E1
:101A800023BF08BD30B585B00C461546FFF720FFD3
:101A900002940395019001AD052420462946ABBE72
:101AA0000446204605B030BDF8B50F46144606463C
:101AB000FFF70EFFFFF7ECFE22460546394630469B
:101AC000FFF7E0FF421C01D0A04205D14FF0FF30EC
:101AD000BDE8F840FFF7EABE142D06D0044B03EB37
:101AE000C505221A6B689B186B60201AF8BD00BFF1
:101AF000AC100020F0B5074685B04FF0FF300D4622
:101B0000FFF7C6FE142806462CD0C5F30044AA07EA
:101B100048BF44F00204AB0548BF44F00404680524
:101B200048BF44F00404290748BF24F004043846A1
:101B300048BF44F008040197FEF78AFC0294039022
:101B400001AD012420462946ABBE0446002C0CDB27
:101B5000084B43F8364003EBC6060023736004F1DC
:101B6000200005E04FF0FF3002E02046FFF79EFE28
:101B700005B0F0BDAC1000200EB400B50199FFF720
:101B8000B9FF411C01D1FFF79FFE5DF804EB03B0E4
:101B9000704737B5FFF79CFE0190FFF779FE1428D8
:101BA00004D0064B4FF0FF3243F8302001AD022441
:101BB00020462946ABBE044620463EBDAC10002060
:101BC00008B5FFF7E6FF431C03D1BDE80840FFF767
:101BD0007BBE08BD062930B50CBF054D054D4FF045
:101BE000180420462946ABBE0446204630BD00BF3F
:101BF00023000200260002004FF0FF31FFF7EABF8A
:101C00000120704708B50C4BD3F8AC2012B90B4A31
:101C1000C3F8AC20D3F8AC306A461818904206D905
:101C200000F0C6F80C2303604FF0FF3302E0024AD5
:101C3000C2F8AC00184608BDAC100020D8830020C4
:101C400010B508460C463C220021FEF791FB4FF4EC
:101C5000005363604FF48063E362002010BD38B529
:101C60000C460021FFF788FF051E0FDB20460021F0
:101C70003C22FEF77DFB4FF4014363604FF4806329
:101C8000E3622846FFF785FF002038BD4FF0FF30A4
:101C900038BD4FF0FF30704737B50090FEF7D8FBE6
:101CA0000E2401906D4620462946ABBE0446621CB8
:101CB00002D1FFF709FE0446002C14BF4FF0FF309D
:101CC00000203EBD7047F0B50C46054638B10026F1
:101CD000112738463146ABBE07462F606E6014B1FF
:101CE0000023236063600020F0BD70B5044600252A
:101CF000102630462946ABBE06461CB126606560FC
:101D0000A560E560304670BD37B5FFF7E1FD02AC78
:101D1000092544F8040D28462146ABBE0446611C43
:101D200002D1FFF7D1FD044620463EBD37B5C8B10C
:101D30000090FEF78DFB122401906D462046294647
:101D4000ABBE0446601C02D1FFF7BEFD0446FF2C6B
:101D5000204608D800E0400028B1C0F30722A24284
:101D6000F9D100E001203EBD30B585B00C460090B1
:101D7000FEF76EFB019020460294FEF769FB0F24EC
:101D800003906D4620462946ABBE0446631C02D133
:101D9000FFF79AFD0446002C14BF4FF0FF300020DF
:101DA00005B030BD00000000000000000000000091
:101DB000014B1868704700BF0808002000000000B1
:101DC0000020704700207047014900F0C9B900BFEA
:101DD00063260008002310B5044603604360836057
:101DE00081814366C281036143618361194600F1C9
:101DF0005C000822FEF7BCFA044BE4612362044B4A
:101E00006362044BA362044BE36210BD012500082A
:101E100027250008632500088725000870B5682578
:101E20004D430E4605F10C01FEF7F2FE044640B1AB
:101E300000F10C00002184E84200A0602A46FEF771
:101E400097FA204670BD024B1868FFF7BDBF00BF70
:101E5000D0FF000838B5836B0446EBB90F4AC0F8D1
:101E6000E032C26303220125C0F8E42200F53B7290
:101E70008563C0F8E82204211A464068FFF7AAFFEC
:101E8000A06809212A46FFF7A5FFE0681221022277
:101E9000BDE83840FFF79EBF38BD00BFC91D000830
:101EA000F8B51D4B1E68B36B074613B93046FFF7F4
:101EB000D1FF06F53876B468736803E0B4F90C50C6
:101EC0008DB16834013BF9D533680BB13668F2E760
:101ED00038460421FFF7A2FF30600028F6D10C231A
:101EE0003B60044615E04FF6FF73E3810123A381B5
:101EF00065662560A560656025616561A56104F181
:101F00005C0029460822FEF733FA256365636564A1
:101F1000A5642046F8BD00BFD0FF00087047704799
:101F200070477047024B0349186800F019B900BFA9
:101F300008080020C11D0008024B0349186800F082
:101F40000FB900BF08080020C51D000800000000F0
:101F5000F8B5234D0E460446FFF76AF8AB685F6894
:101F600027F0030707F6EF739E1B26F47F6626F023
:101F70000F06A6F58056B6F5805F04DA2046FFF717
:101F800058F80020F8BD00212046FFF759F8AB684B
:101F9000DB199842F2D171422046FFF751F8013027
:101FA00010D100212046FFF74BF8AB68C21A0F2A68
:101FB000E4DD0C490968401A0B4942F0010208604F
:101FC0005A60DBE7AB68BF1B47F001075F60064B59
:101FD0001A682046961B1E60FFF72BF80120F8BDFB
:101FE000380C0020401000207C100020F8B5064678
:101FF0000D46002900F0A580FFF71AF855F804CC2B
:10200000504FA5F108032CF001029C18B9686068D4
:102010008C4220F003000CF001011CD1821839B968
:1020200055F8081C5B1A52189868D968C160886016
:1020300042F00101596043498B60434B1B689A424F
:1020400004D3424B30461968FFF782FF3046BDE8A3
:10205000F840FEF7EEBF606059B955F8085C5B1BAD
:1020600052199D680837BD4205D0DF68EF60BD603A
:1020700002E0002100E0012125186D6815F0010F34
:102080000FD1121849B9A068314DA84205D1EB60B3
:10209000AB60D8609860012103E0E068A468E0606C
:1020A000846042F0010058609A500029CED1B2F508
:1020B000007F0CD22349D2089010012404FA00F4C6
:1020C000486801EBC20220434860916834E0540A3A
:1020D000042C02D89409383416E0142C01D85B344F
:1020E00012E0542C02D8140B6E340DE0B4F5AA7F24
:1020F00002D8D40B773407E040F254518C4202D816
:10210000940C7C3400E07E240E4D05EBC400816805
:1021100081420BD10122A41002FA04F46A6822431E
:102120006A600A4608E08968814204D04C6824F05D
:102130000304A242F7D3CA68DA6099609360CB6067
:1021400084E7F8BD380C00204410002078100020EF
:10215000400C002000000000000000000000000013
:102160002DE9F041884600F53874002611E0A56895
:1021700067680BE0AB8943B1012B06D9B5F90E3086
:10218000013302D02846C04706436835013FF1D5E8
:102190002468002CEBD13046BDE8F0812DE9F843EE
:1021A0008046894600F53874002612E0A568676805
:1021B0000CE0AB894BB1012B07D9B5F90E300133D7
:1021C00003D040462946C84706436835013FF0D54D
:1021D0002468002CEAD13046BDE8F88300000000F6
:1021E000814210B511D28C18A0420ED253428118F0
:1021F000E418CB1801E0A15C995412F1FF32FAD235
:1022000010BDCC5CC454013300E000239342F8D1EC
:1022100010BD0000000000000000000000000000F1
:102220002DE9F84F814616460C4621B91146BDE806
:10223000F84FFEF7EDBCFEF7FBFE06F10B0754F876
:10224000045C162FA4F1080B25F0030803D937F01E
:10225000070701D502E01027B74204D20C23C9F8C2
:102260000030002644E1B84580F21981A24A916805
:102270000BEB08038B4206D05A6822F001029A1831
:102280005268D00726D45A688B4222F0030000EB34
:10229000080A18D107F1100292451DDB964B0BEB93
:1022A0000705C7EB0A0A9D604AF001036B6054F80A
:1022B000043C03F001031F4344F8047C4846FEF746
:1022C000B8FE264614E1BA4506DBDA689B68DA6098
:1022D0009360E5E000200346EA0700F1918054F89E
:1022E000085CC5EB0B056A6822F00302002B51D095
:1022F00002EB080A8B42824445D107F110039A454C
:1023000048DB2E46EB6856F8082FD3609A60A8F198
:102310000402242A25D8132A1BD92368AB606368DA
:102320001B2AEB6003D805F11003083412E0A36800
:102330002B61E368242A6B6103D005F11803103484
:1023400008E02369AB6163691834EB6105F1200390
:1023500000E0334622681A6062685A60A2689A6098
:1023600003E030462146FFF73BFF634AEB19C7EB1A
:102370000A0A93604AF001025A606B6803F0010395
:102380001F436F6087E0BA4504DBDA689B68DA6058
:10239000936003E002EB080ABA4531DB2846EB689C
:1023A00050F8082FD3609A60A8F10402242A23D899
:1023B000132A1AD92368AB6063681B2AEB6003D821
:1023C00005F11000083410E0A3682B61E368242AAB
:1023D0006B6103D005F11800103406E02369AB618E
:1023E000636905F12000EB611834236803606368BA
:1023F0004360A368836054E02146FFF7F1FE50E09C
:1024000031464846FEF704FC064600B943E054F85E
:10241000043C23F00103A0F108025B449A4205D179
:1024200050F8043C23F0030AC24439E0A8F1040246
:10243000242A29D8132A1ED92368036063681B2A1B
:10244000436004D800F1080304F1080215E0A36812
:102450008360E368242AC36004D000F1100304F110
:1024600010020AE023690361636904F11802436101
:1024700000F1180301E00346224611681960516813
:10248000596092689A6002E02146FFF7A9FE48462B
:102490002146FFF7ABFD4846FEF7CBFD28E0C246DC
:1024A0005D46C7EB0A030F2B6A6811D9E91902F0E0
:1024B0000102174343F00102CB186F604A605A686B
:1024C00042F001025A6048460831FFF78FFD0AE0EA
:1024D00002F001024AEA020205EB0A036A605A6846
:1024E00042F001025A604846FEF7A3FD05F10806D6
:1024F0003046BDE8F88F00BF380C00200000000017
:1025000010B50C46B1F90E1000F082F9002803DB7B
:10251000236D1B18236510BDA38923F48053A38169
:1025200010BD002070472DE9F0411D468B8903F452
:1025300080731BB207460C4616462BB1B1F90E103C
:102540000022022300F04CF9A389B4F90E1023F401
:102550008053A381384632462B46BDE8F04100F057
:1025600017B810B50C46B1F90E1000F039F9431C3C
:10257000A38903D123F48053A38110BD43F4805376
:10258000A381206510BDB1F90E1000F019B800004C
:1025900038B5074C054600202060084611461A460B
:1025A000FFF782FA431C02D1236803B12B6038BDC8
:1025B000D4830020000000000000000000000000A4
:1025C00038B5064C0023054608462360FFF7F8FAA5
:1025D000431C02D1236803B12B6038BDD483002093
:1025E00070B505460C4609B9002638E018B1836B72
:1025F0000BB9FFF72FFCB4F90C30002BF4D02846B0
:10260000214600F0C7F8E36A06463BB12846E16977
:10261000984736EA200628BF4FF0FF36A38903F01B
:1026200080031BB21BB128462169FFF7DFFC216B39
:1026300041B104F14003994202D02846FFF7D6FC8D
:1026400000232363616C21B12846FFF7CFFC0023F0
:102650006364FFF763FC0023A381FFF760FC30464F
:1026600070BD024B01461868FFF7BABF080800208A
:102670008A8902F008031BB22DE9F04105460C4699
:10268000002B63D142F400638B814B68002B03DC89
:10269000CB6B002B00DC18E0A66AB6B102F48052C6
:1026A000002312B22F682B600AB1226D10E00123C3
:1026B0002846E169B0470246013009D12B683BB199
:1026C0001D2B01D0162B56D12F600020BDE8F081C4
:1026D000A38903F004031BB22BB16368D21A236BE6
:1026E0000BB1E36BD21AE169A66A00232846B04712
:1026F000411C05D12B681BB11D2B01D0162B1FD1FE
:10270000A38923F40062A2810022626003F4805353
:1027100022691BB2226023B1421C01D12B6803B98C
:102720002065216B2F600029CFD004F1400399422E
:1027300002D02846FFF75AFC00202063BDE8F08154
:10274000A38943F04003A381BDE8F0810E69002E08
:10275000BBD00B680E60C6EB030893070CBF4B6938
:1027600000238B6012E0676AE169284632464346DF
:10277000B847002807DCA38943F04003A3814FF04A
:10278000FF30BDE8F0813618C0EB0808B8F1000F43
:10279000E9DC9AE738B50C46054618B1836B0BB9EE
:1027A000FFF758FBB4F90C0028B128462146BDE8D4
:1027B0003840FFF75DBF38BD014620B9044B0549DD
:1027C0001868FFF7EBBC044B1868FFF7E3BF00BFC6
:1027D000D0FF00089527000808080020000000002E
:1027E00038B5074C054600202060084611461A46B9
:1027F000FFF73EF9431C02D1236803B12B6038BDBB
:10280000D483002000000000000000000000000051
:1028100038B5074C054600202060084611461A4688
:10282000FFF7C2F8431C02D1236803B12B6038BD07
:10283000D483002000000000000000000000000021
:10284000704700BFAFF30080AFF30080AFF30080AC
:10285000FEE700BFAFF30080AFF30080AFF300806E
:1028600072B6374880F30988022383F31488BFF3D4
:102870006F8F344A344B9A420BD2D143C91821F09E
:102880000301131F89184FF0553243F8042F8B4270
:10289000FBD12E4A82420CD22D49131DC91A21F0B8
:1028A0000301131F89184FF0553243F8042F8B4250
:1028B000FBD105F0FDF92749274B99420BD2C843BC
:1028C000C01820F00300254C043000231A595A5038
:1028D00004338342FAD1224A224B9A420AD2D1438C
:1028E000C91821F00301131F8918002243F8042F8F
:1028F0008B42FBD1FFF7A4FF1B4D1C4B9D420BD21B
:10290000EE43F618B608043D0136002455F8043F9E
:1029100001349847B442F9D1FDF73AFC144D154BF8
:102920009D420BD2EE43F618B608043D0136002452
:1029300055F8043F01349847B442F9D1FFF788FFB6
:1029400000080020000000200004002000040020F7
:10295000030800200008002078100020A8150108B6
:1029600078100020D8830020880100088801000822
:102970008801000888010008AFF30080AFF30080F1
:10298000FEE700BFAFF30080AFF30080AFF300803D
:1029900072B6FEE7AFF30080AFF30080AFF30080C4
:1029A00000F086F900F05CFC00F09AF900DF00BF4F
:1029B000EFF30983203383F30988002383F311881D
:1029C000704700BFAFF30080AFF30080AFF300802B
:1029D00008B54FF46D43CEF200034FF44072C0F2DD
:1029E000FA520021996007201021DA6000F0A8F85F
:1029F0000A204FF4007100F0A3F80B208021BDE8FD
:102A0000084000F09DB800BFAFF30080AFF3008036
:102A1000202383F311884FF46D43CEF200035B68EB
:102A200013F400631AD0EFF30983A3F1200282F3B9
:102A3000098811494FF080708A6943F8040C92F8B4
:102A4000230009689268896858B1914294BF0022B6
:102A5000012262B1094A43F8082C704783F31188B8
:102A60007047914234BF00220122002AF2D1044A69
:102A700043F8082C704700BF8C160020A1290008DD
:102A8000AC290008AFF30080AFF30080AFF3008003
:102A900008B500F07DF9202383F3118800F040F998
:102AA00000F0B6F800F054F9002383F3118800F029
:102AB0008FF9BDE80840FFF7ABBF00BFAFF3008060
:102AC0002DE9F04FC1F80CD0D0F80CD0BDE8F08F54
:102AD00008B500F005F9002383F311882846A047C4
:102AE00000F0FEFC08BD00BFAFF30080AFF3008034
:102AF000F0B44FF461438408CEF20003C03400F018
:102B0000030553F82470ED00FF26420906FA05F686
:102B100027EA060601FA05F500F01F0002F160073A
:102B2000012101FA00F02E4343F8246043F8270006
:102B300043F82200F0BC7047AFF30080AFF3008091
:102B400082084FF46D43CEF20003063200F003001A
:102B500030B4C00053F82250FF2404FA00F425EAF0
:102B6000040401FA00F10C4343F8224030BC7047E2
:102B7000024B034A9B699A61FEE700BF8C16002056
:102B800000000108AFF30080AFF30080AFF30080D6
:102B900030B583B0FFF71CFF00F00AFA00F0A0F98F
:102BA00001F0C6FA01F01CFB00F062F941F25C1082
:102BB0004021C2F2000000F063FB41F28C6440F25D
:102BC0000043C2F20003C2F200040125C36180F891
:102BD0002050A06100F054F8002383F3118862B6FE
:102BE00040F2D011A269C0F60101916141F2A81032
:102BF000009342F67133C0212A46C0F60003C2F2A8
:102C0000000000F0CDFB03B030BD00BFAFF300808B
:102C1000F8B500F0FDF8164B9B6993F8232012B12C
:102C2000013A83F823205A6A124D01325A62EB6846
:102C30002C680133AC42EB6018D0A768013FA76055
:102C4000A7B92368E6685D60E7602B6000F080F854
:102C5000002383F311882069B047202383F3118870
:102C600000F05EF82C68A368002BEAD0F8BD00BF26
:102C70008C1600207C160020AFF30080AFF300809C
:102C8000054B1B6813B9054B1B6823B1044A054B60
:102C90001A60FFF77DBE704768120020741600208E
:102CA0002000010878160020AFF30080AFF3008009
:102CB000074B1B6810B5074C0BB9236823B1064AB4
:102CC000064B1A60FFF764FE0123236010BD00BFAE
:102CD00068120020741600202800010878160020D1
:102CE000084B1B6810B5084C2BB92368002B02DD7C
:102CF0000023236010BD054A054B1A60FFF748FE0C
:102D0000F6E700BF681200207416002030000108AA
:102D100078160020AFF30080AFF30080AFF300809F
:102D2000074B1B68002B10B5064C01DD236823B14F
:102D3000054A064B1A60FFF72BFE0123236010BDE6
:102D40006812002074160020380001087816002050
:102D5000084B1B68002B10B5074C05DD2368002BC2
:102D600002DD0023236010BD044A054B1A60FFF703
:102D70000FFEF6E7681200207416002040000108DC
:102D800078160020AFF30080AFF30080AFF300802F
:102D900010B5202383F31188094C2368002B02DB34
:102DA000084A12682AB1084B084A1A60FFF7F0FD7A
:102DB000236801332360002383F3118810BD00BF13
:102DC00068120020741600207816002048000108C0
:102DD00010B5202383F31188094C2368002B02DDF2
:102DE000084A12682AB1084B084A1A60FFF7D0FD5A
:102DF0002368013B2360002383F3118810BD00BFCB
:102E00006812002074160020781600205000010877
:102E1000064B1B68002B04DB054B1B68002B00DDF9
:102E20007047044A044B1A60FFF7B2BD68120020D5
:102E3000741600205800010878160020AFF30080B7
:102E4000064B1B6823B9064B1B68002B00DD70473F
:102E5000044A054B1A60FFF79BBD00BF68120020B3
:102E6000741600206000010878160020AFF300807F
:102E700041F26C23C2F200031A46402142F8081BBB
:102E80005A607047AFF30080AFF30080AFF300806B
:102E90000C490D4A10B4CC680C49536889691C6010
:102EA0005960816A996090F8204003F1100102F5A1
:102EB000816081421C732ABF02F108035160536094
:102EC00010BC70477C1600206C1200208C1600206D
:102ED00041F27863C2F200031860FFF759BD00BFEA
:102EE00041F27C63C2F200034FF0FF329A6000228D
:102EF0005B601B60DA607047AFF30080AFF3008067
:102F0000F8B5054616460C461F46FFF781FF002D13
:102F100018BF002E1AD0CCB10E492F610B68EE609D
:102F20009A68944204D91B68A41A9A68A242FAD3F8
:102F30005A68AC608B426A602B60156018BF9A6853
:102F40005D601CBFC4EB02049C60F8BD0248FFF743
:102F5000BFFFE1E77C16002070000108AFF300809E
:102F600010B50446FFF754FF84B1E36893B12368BA
:102F70000A4A93421FBF9968A2688A189A606268D9
:102F8000136023685A600023E36010BD0448FFF714
:102F90009FFFEAE70348FFF79BFFE8E77C16002066
:102FA0008000010890000108AFF30080AFF30080BB
:102FB00041F28C63C2F2000300225B601B609A60E6
:102FC0005B611B61704700BFAFF30080AFF300800F
:102FD00010B50446FFF71CFF94F82030002B18BFF3
:102FE0000E2B0FD00022A168084B84F820201B680C
:102FF0009A688A42FBD25A682360626014605C60FF
:10300000204610BD0248FFF763FFEBE78C16002057
:10301000B0000108AFF30080AFF30080AFF3008091
:1030200010B52023044683F31188FFF779FE94F846
:1030300020300D2B11D8DFE803F016101007100B0D
:10304000101010101010100BA36A9A6801329A60C9
:1030500094E80C001A60226853604FF0FF33A362BB
:103060002046FFF7B5FFFFF773FE002383F31188B7
:1030700010BD00BFAFF30080AFF30080AFF300805E
:1030800070B5114C0646FFF7DBFE2368A5691A6888
:1030900085F82060142185F823100121546083F8FD
:1030A000201028462260A361FFF7F2FEEB69ADF124
:1030B0002402934202D90548FFF70AFFA069294676
:1030C000BDE87040FFF7FCBC8C160020C40001086E
:1030D00070B50C4686B00646FFF7B2FE631C12D0F0
:1030E0000B4D0C4AAB69214601A8FFF709FF30469A
:1030F000FFF7C6FF049B13B101A8FFF731FFAB69CF
:10310000986A06B070BD3046FFF7BAFF004DF6E78B
:103110008C16002021300008AFF30080AFF3008050
:1031200070B5144D04460E46FFF78AFEA869A268E2
:103130008368A6629A4213D9FFF74AFF0123064625
:1031400084F82030AC61FFF7A3FEF369ADF12402EF
:1031500093420AD820463146BDE87040FFF7B0BC24
:103160002046BDE87040FFF733BF0348FFF7B0FECD
:10317000F0E700BF8C160020C4000108AFF3008008
:1031800038B5104C2368A5691A68012183F820100E
:103190001421546085F8231028462260A361FFF7AC
:1031A00017FF2846FFF774FEEB69ADF12402934246
:1031B00002D90548FFF78CFEA0692946BDE83840D2
:1031C000FFF77EBC8C160020C4000108AFF300801E
:1031D00070B5144E3368B5691A68AC685660012141
:1031E0003260002283F82010B36185F8202000E0CF
:1031F0001B689A68A242FBD85A682B606A60156007
:103200005D602846FFF744FEEB69ADF1240293426E
:1032100002D90548FFF75CFEB0692946BDE8704059
:10322000FFF74EBC8C160020C4000108AFF30080ED
:1032300008B5FFF705FE064B1A689B6992689B6804
:103240009A4200D808BDBDE80840FFF7C1BF00BFE3
:103250008C160020AFF30080AFF30080AFF3008046
:10326000044B9B6993F823300BB1FFF7B1BFFFF715
:1032700087BF00BF8C160020AFF30080AFF3008043
:103280002DE9F00141F28C64C2F20004002265696C
:103290004164046100F13006816000F12C0C00F102
:1032A0004C0745614FF0020860610121142480F849
:1032B000208080F8212080F823400264C2634262AB
:1032C00080F8221082612861C0F82CC04663066332
:1032D000C761BDE8F0017047AFF30080AFF3008035
:1032E000884203D200F8012B8842FBD1704700BF0F
:1032F0002DE9F04704460D4690469946FFF788FDB4
:10330000002C18BFAF2D0AD9B8F17F0F94BF00234E
:103310000123B9F1000F08BF43F0010313B11B48AB
:10332000FFF7D6FD1A4EA5F12403E7187169E7608F
:1033300044F80390089B7B60164B3B62022384F8A1
:1033400020301423002504F1300204F12C0A04F18A
:103350004C0C84F8233001232661C4F80880616195
:103360002046746184F82150C4F844802564E563E4
:10337000656284F82230A5610C61C4F82CA06263F8
:103380002263C4F81CC0BDE8F08700BFE00001085C
:103390008C160020D12A0008AFF30080AFF3008024
:1033A0002DE9F04F804683B0894692469B4600F156
:1033B0004C0700F1010400F14D06FF2504F8015C03
:1033C0000134B442FAD108EB0904A74204D25525CE
:1033D00007F8015BA742FBD1202383F31188FFF795
:1033E00067FC0C985B465246494600904046FFF702
:1033F0007FFF00210446FFF793FEFFF771FC0023D7
:1034000083F31188204603B0BDE8F08FAFF300804E
:103410007F2838B5044617D8202383F31188FFF797
:1034200047FC0B4B9B695D6C9A68954201D09442B6
:1034300000D99C605C64FFF7FBFEFFF751FC0023A2
:1034400083F31188284638BD0248FFF741FDE3E7C2
:103450008C160020F4000108AFF30080AFF3008069
:1034600010B5044610B90948FFF732FD202383F355
:103470001188FFF71DFC21460620FFF729FEFFF704
:103480002FFC002383F3118810BD00BF2001010829
:1034900038B5104B9C692546A06255F82C0FA84200
:1034A00006D00368E362FFF793FDE06AA842F8D113
:1034B00094F821309B0704D1636922691A6122695B
:1034C00053610E20FFF7DCFD0348BDE83840FFF7ED
:1034D000FFBC00BF8C16002030010108AFF3008054
:1034E00010B52023044683F31188FFF7E1FB204643
:1034F000BDE81040FFF7CCBFAFF30080AFF3008012
:1035000038B50446202383F31188FFF7D1FB94F8E4
:103510002230002B21D0013BDDB284F82250FFF78E
:10352000DFFB002383F311881DB994F820300E2BA4
:1035300000D038BD94F8213003F00303012B12D0E2
:10354000022BF6D163692269A06C1A6122692146B7
:103550005361BDE8384000F02BBF0848FFF7B8FCC6
:1035600094F82230D7E7636922691A6122692046FC
:103570005361BDE8384000F08BBE00BF94010108E4
:103580002DE9F04182B00D461746984600F038FE0E
:10359000044618B300F14C063146FF22FFF7A0FEA7
:1035A000304661195522FFF79BFE202383F31188D3
:1035B000FFF77EFB08983A4643462946009020468E
:1035C000FFF796FE012380F8213000210446FFF723
:1035D000A7FDFFF785FB002383F31188204602B087
:1035E000BDE8F081AFF30080AFF30080AFF300805F
:1035F00010B5202383F31188FFF75AFB41F28C6347
:10360000C2F200031C6994F82230013384F822309E
:10361000FFF766FB002383F31188204610BD00BF2F
:1036200038B50546202383F31188FFF741FB2C6949
:103630000D4B9C4216D094F82230FF2B0CD0013356
:1036400084F82230FFF74CFB002383F311882846CF
:10365000FFF756FF204638BD0448FFF739FC94F8C1
:103660002230ECE70024EDE78C160020F001010881
:1036700038B5D0F1010338BF002353EAD1730446B3
:103680000D4602D00348FFF723FC64602460A56068
:1036900038BD00BF10020108AFF30080AFF3008017
:1036A00070B504460E46FFF7B3FBD4F1010338BFF3
:1036B000002353EAD6731DD1A5682368002D16DBBD
:1036C000A34203D00D48FFF703FCA5680135002D88
:1036D000A6600BDC6FF001066068436863601C60E5
:1036E000FFF776FC0135012D8662F5D170BDA3424E
:1036F000ECD1E7E70248FFF7EBFBDDE7300201081A
:1037000020020108AFF30080AFF30080AFF3008028
:1037100038B504460D46FFF793FB002C24D0A36870
:103720002268002B0BDBA24203D01348FFF7D0FB2B
:10373000A3685A1E002AA26007DB002038BDA242FF
:10374000F3D05A1E002AA260F7DA8DB10B4B9B69A9
:103750009C6262681C60032029465A6063601360A3
:10376000BDE83840FFF7B4BC0548FFF7B1FBD6E72A
:10377000A3604FF0FF3038BD800201088C16002096
:1037800068020108AFF30080AFF30080AFF3008060
:1037900010B5044618B3A368002B236814DBA342BA
:1037A00002D01148FFF794FB202383F31188FFF721
:1037B0007FFAA3680133002BA36008DDFFF790FABE
:1037C000002383F3118810BDA342EDD1E9E72068FF
:1037D0000368002123605C60FFF7A2FCEEE703486A
:1037E000FFF776FBD7E700BFA8020108980201089F
:1037F00010B50446FFF70CFB002C1FD0A36822680D
:10380000002B0ADBA24203D00E48FFF761FBA3683E
:103810000133002BA36006DD10BDA242F4D00133BA
:10382000002BA360F8DC23681A68184622605460F5
:1038300000229A62BDE81040FFF7CABB0248FFF7BA
:1038400047FBDBE7D0020108BC020108AFF30080B0
:1038500010B5044620B1002364602460A36010BD4D
:103860000148FFF735FBF6E760030108AFF300807E
:10387000F8B53B4B05469C69FFF7E2FA002D6BD08B
:10388000A868002836D0A2688368934208D290F8CE
:1038900020308260042B45D0052B30D0002B1ED069
:1038A0002B461B689D4203D09968A2689142F8D2CA
:1038B0005A682360626004205C601460A562FFF7B0
:1038C000DFFBAB68A34202D02648FFF701FB236C65
:1038D000AB4213D02448BDE8F840FFF7F9BA90E8AE
:1038E0000C001A600268012180F820105360FFF775
:1038F0006FFBD5E7236CAC60EB602564F8BD4168D5
:103900000368866A0B600768334679601B689E42CD
:1039100002D099689142F9D25A68036042601060FF
:103920005860BDE741680368866A0B6007683346E4
:1039300079601B689E420DD099689142F9D25A680D
:103940000360426010605860B068A2688368934268
:103950009DD3A5E73346F2E70448FFF7B9FA8FE7AE
:103960008C160020800301089403010870030108ED
:1039700010B52023044683F31188FFF799F92046F8
:10398000FFF776FFFFF7ACF9002383F3118810BD32
:103990001E4A70B52023956983F31188FFF788F9D3
:1039A0002C6C002C2DD0A368AB4203D01848FFF735
:1039B0008FFA2C6C2668E368A6422B641ED0696CD3
:1039C0004BB11A689A4203D09268914238BF1146AF
:1039D000DB68002BF5D13368326CA9603046236078
:1039E00000215C60A660E2603464FFF799FBFFF79A
:1039F00077F9002383F31188204670BD0023A3606C
:103A0000F5E70448FFF764FA2C6CCCE78C1600202D
:103A1000D0030108BC030108AFF30080AFF30080BE
:103A2000002818BF0029F8B50C460546174602D1F4
:103A30000B48FFF74DFA202383F31188FFF738F97D
:103A4000084B2A689B69226000262C606360A7608F
:103A5000E660FFF745F9334683F31188F8BD00BFF0
:103A6000100401088C160020AFF30080AFF3008033
:103A700010B52023044683F31188FFF719F941F2AA
:103A80008C63C2F200039B69DA6B1443DC63FFF7BB
:103A900027F9002383F31188204610BDAFF300807F
:103AA00038B504460D46FFF7B3F9C4B1E26B94F89C
:103AB000203045EA0201082BE1630CD0092B00D02D
:103AC00038BDA36A19408B42FAD12046FFF780FA2D
:103AD0000023836238BDA36A1942F6D138BD02487B
:103AE000FFF7F6F9E2E700BF3C040108AFF30080FE
:103AF00070B505460E46FFF78BF965B12C68A542F7
:103B000008D0201D0BC83343E360FFF7C9FF2468CA
:103B1000A542F6D170BD0248FFF7DAF9EEE700BF23
:103B200060040108AFF30080AFF30080AFF30080C2
:103B30002DE9F04180460D46D0B18DB100263446C6
:103B4000012707FA04F32B4206D058F8062025EA8D
:103B500003053AB12046904701340436002DF0D1D8
:103B6000BDE8F0810448FFF7B3F958F80620F1E703
:103B70000248FFF7ADF9E0E78C040108780401087A
:103B80000E4B70B59D690446202383F31188FFF71F
:103B90008FF8EB6B14EA030606D1AC620820FFF73E
:103BA0006FFAEB6B04EA030623EA0603EB63FFF705
:103BB00097F8002383F31188304670BD8C160020DF
:103BC000F8B5164B05469E690F46202383F31188EE
:103BD000FFF76EF8F36B15EA03040BD1B7B10820B9
:103BE000B5623946FFF774FA0028A4BFF36B05EA03
:103BF00003040BDB6242144023EA0403F363FFF780
:103C00006FF8002383F311882046F8BDFFF768F8AA
:103C1000234683F311882046F8BD00BF8C16002090
:103C2000002818BF002970B50D460446164613D06B
:103C3000002A11DD05EB860304F11C003146E56026
:103C4000A56025606360FFF713FD04F110000021FB
:103C5000BDE87040FFF70CBD0148FFF739F9E9E70F
:103C6000A0040108AFF30080AFF30080AFF3008041
:103C700010B50446D8B1202383F31188FFF718F854
:103C800023686168E360C91AA36004F11C0089100D
:103C9000FFF706FD04F110000021FFF701FDFFF71B
:103CA000C7FAFFF71DF8002383F3118810BD0248FF
:103CB000FFF70EF9DFE700BFB0040108AFF30080A3
:103CC00070B504460E461546FFF7BAF8C4B129464A
:103CD00004F11C00FFF71CFD054678B9A368626873
:103CE00043F8046B9342A36028BF236804F11000DB
:103CF00028BFA360FFF77CFDFFF79AFA284670BD46
:103D00000148FFF7E5F8E2E7C0040108AFF30080DF
:103D100070B5202306460D46144683F31188FEF73E
:103D2000C7FF224629463046FFF7CAFF0446FEF782
:103D3000D7FF002383F31188204670BDAFF30080C6
:103D400070B504460E461546FFF77AF8002C18BFEA
:103D5000002E19D0294604F11000FFF7D9FC0546C2
:103D600080B9E368626853F8041B93423160E360F2
:103D700028BF236804F11C0028BFE360FFF738FD6B
:103D8000FFF756FA284670BD0148FFF7A1F8E1E7B2
:103D900008050108AFF30080AFF30080AFF30080A7
:103DA00010B4024659B1084B9B69986244680D20D3
:103DB00083E814005360236010BCFFF789B94FF00B
:103DC000FF3010BC704700BF8C160020AFF300809E
:103DD00010B4C361019B40608A18002400608460B5
:103DE00041618161C1600261036210BC704700BF24
:103DF00038B50446FFF70CF8E36820686361A361F7
:103E00000023A042A3600AD06FF00105036823607D
:103E10005C60FFF7DDF885622068A042F6D138BD0E
:103E200038B504460D46FEF7F3FFA2696369934275
:103E3000A26818D00132A26003F8015B22696361B5
:103E4000934228BFE368206828BF6361A04208D07E
:103E5000036823605C60FFF7BBF8002383621846A9
:103E600038BD002038BD002AE4D06FF0030038BD13
:103E7000F8B504460E46202383F31188FEF718FF99
:103E8000E3690BB120469847A5682046314655B9ED
:103E9000FFF786FF071EF7DAFEF722FF2B4683F3B4
:103EA00011883846F8BDA3692269013DA56013F861
:103EB000017B9342A36124BFE368A361FEF710FF77
:103EC000002383F311883846F8BD00BFAFF30080AC
:103ED0002DE9F0470446154688461E46C769002A64
:103EE0003AD0202383F31188FEF7E2FE08F1010A9D
:103EF0004FF00009A8440FB12046B847A5682046F6
:103F000031465DB9FFF74CFF0028F7D0FEF7E8FE19
:103F10002B4683F311884846BDE8F087A369013D2D
:103F2000A56013F8012B0AF8012C2269A3619342C2
:103F300024BFE368A361FEF7D3FE002383F3118857
:103F4000C24509F10109E6D0202383F31188FEF769
:103F5000AFFE0AF1010ACEE70148FEF7B9FFC0E75C
:103F600030050108AFF30080AFF30080AFF30080AD
:103F700010B4C361019B40608C1800608260416195
:103F80008161C1600461036210BC7047AFF30080BF
:103F900038B50446FEF73CFFE36822692068636198
:103FA000D21AA042A361A2600AD06FF00105036893
:103FB00023605C60FFF70CF885622068A042F6D1B0
:103FC00038BD00BFAFF30080AFF30080AFF30080D7
:103FD0002DE9F041202304468846164683F31188D4
:103FE000FEF766FEA568204631465DB9FFF7D8FEAC
:103FF000071EF7DAFEF774FE2B4683F31188384666
:10400000BDE8F0816369013DA56003F8018B226979
:104010006361934224BFE3686361E3690BB12046A7
:104020009847FEF75DFE002383F311881F4638464C
:10403000BDE8F081AFF30080AFF30080AFF3008004
:1040400038B50446FEF7E4FE6269A3699A42A268A5
:1040500016D00132A26013F8015B2269A36193427A
:1040600028BFE368206828BFA361A04206D0036888
:1040700023605C60FEF7ACFF00238362284638BDF6
:10408000002AE6D06FF0020038BD00BFAFF3008019
:104090002DE9F0470446164688469A46D0F81C900B
:1040A000002A39D0202383F31188FEF701FE002770
:1040B000A56820466B1E0DB3A36018F8013B656927
:1040C00005F8013B236965619D4224BFE368636194
:1040D000B9F1000F00D0C847FEF702FE002383F3BA
:1040E00011880137013E14D0202383F31188FEF795
:1040F000DFFDA56820466B1E002DDDD12046514610
:10410000FFF74EFE0028D3D0FEF7EAFD2B4683F3DF
:1041100011883846BDE8F0870148FEF7D9FEC1E7AF
:1041200044050108AFF30080AFF30080AFF30080D7
:1041300041F2AC6241F2A8634CF200010648C2F2BF
:104140000002C2F20003C2F2010120F0070021F0D8
:104150000701106019607047DF830020AFF3008013
:1041600010B50446FEF754FE074A0849136809686B
:10417000E01D20F00700C91A88429ABF1818106085
:104180000023184610BD00BFAC160020A816002062
:1041900010B52023044683F31188FEF789FD2046DD
:1041A000FFF7DEFF0446FEF79BFD002383F3118833
:1041B000204610BDAFF30080AFF30080AFF3008066
:1041C00041F2A86241F2AC63C2F20002C2F2000303
:1041D00010681B68C01A7047AFF30080AFF300800F
:1041E00041F2B063C2F2000344F291110022C0F622
:1041F000000103F1100019609A60DA60FFF728BB34
:10420000F8B5204E002818BF0646073106F1100009
:1042100021F0070506F10804FFF7AAFB00E01C46A1
:104220002368FBB15A689542F9D805F1080191421B
:1042300015D84FF6F870CFF6FF70401B03EB010E58
:1042400082181868CEF8042058505D60C4F800E069
:104250001C4644F8086BFFF79BFB2046F8BD1A6824
:104260002260F5E7FFF794FB33684BB105F10800D6
:10427000984728B100F10804066045602046F8BD63
:104280000024EAE7B0160020AFF30080AFF300800F
:10429000F8B5074600284BD057F8086C06F1100017
:1042A000FFF766FB0836A7F108053446AC4204D890
:1042B00063680833E3189D421FD3B442236801D0DA
:1042C000AC4202D21BB19D4201D31C46EEE757F827
:1042D000042C47F8083C256002F1080357F8080C45
:1042E000E91881420DD0636803F10802A2189542D3
:1042F00015D0BDE8F840FFF74BBB0F48FEF7E8FDCF
:10430000DBE74968EB585218083247F8042C47F8A5
:10431000083C636803F10802A2189542E9D157F8F6
:10432000041C57F8082C5B18083384E80C00E0E7FD
:104330000248FEF7CDFDAFE78005010870050108D2
:1043400038B50E4C002818BF044604F110000D4685
:10435000FFF70EFBA3686BB10022144658681B6878
:1043600012180134002BF9D105B12A60FFF710FBB8
:10437000204638BD1A461C46F6E700BFB01600209E
:1043800038B504460D46FEF743FD002C18BF002D3E
:1043900002D10348FEF79CFD23682B60256038BDE1
:1043A000C4050108AFF30080AFF30080AFF30080D5
:1043B00038B505460C46202383F31188FEF778FCB8
:1043C00028462146FFF7DCFFFEF78AFC002383F333
:1043D000118838BDAFF30080AFF30080AFF30080E9
:1043E00008B501F0D5FA00F0D3FC40F66050C0F6F5
:1043F000010002F08DF800F05BF800F069F800F0C1
:104400001FF900F06DFA00F08BFC00F0E9FC00F001
:1044100067FBBDE8084003F053BC00BFAFF300806A
:104420004FF48053CEF20003814202465B6809D804
:10443000834234BF002201228B422CBF104642F03F
:10444000010070478B422CBF00200120934238BFEF
:1044500000207047AFF30080AFF30080AFF300801F
:104460004FF48053CEF2000310B45A681C468018F3
:10447000824263680AD2984294BF002101219A4285
:1044800088BF00210029F3D110BC70479A428CBF2D
:1044900000210121984288BF41F001010029E7D1A4
:1044A000F2E700BFAFF30080AFF30080AFF300800E
:1044B00001F0E6BCAFF30080AFF30080AFF3008003
:1044C0000123037000234360704700BFAFF30080F7
:1044D00002F04EBBAFF30080AFF30080AFF300807B
:1044E00001230370002343600C30FFF7B1B900BF14
:1044F000002818BF002938B50D46044619D0237886
:104500005A1E052B18BF012A02D90C48FEF7E0FC01
:10451000202383F31188FEF7CBFB2046656002F071
:104520003FFB02232370FEF7DBFB002383F311889C
:1045300038BD0348FEF7CCFCE1E700BF00060108E8
:10454000F0050108AFF30080AFF30080AFF3008007
:1045500010B5044608B1A06810BD0248FEF7B8FCCB
:10456000A06810BD2C060108AFF30080AFF30080F7
:104570002DE9F04784B0002818BF0029884604467A
:10458000924699460C9F0D9D0E9E03D0002A18BF9F
:10459000002B28D11848FEF79BFC2378022B02D071
:1045A0001648FEF795FC202383F31188FEF780FB65
:1045B0000023A36003232370204601954B460097F8
:1045C00002964146524602F043FC431C054610D079
:1045D00002232370FEF784FB002383F3118828460F
:1045E00004B0BDE8F0870DB1002FD3D0002ED4D198
:1045F000D0E705232370EDE74006010860060108B7
:1046000010B5044628B104F10C00BDE81040FFF7D6
:10461000AFB90248FEF75CFCF5E700BFB40601083D
:1046200008B518B1BDE80840FFF7B2B90148FEF778
:104630004FFCF7E7C8060108AFF30080AFF3008036
:1046400001F08EBCAFF30080AFF30080AFF30080C9
:1046500038B5044601230025237000F108002946DF
:104660006560FFF705F804F114002946FFF700F82C
:1046700004F12003236238BDAFF30080AFF3008064
:10468000002818BF002938B50D46044616D020234F
:1046900083F31188FEF70CFB2378012B02D0094825
:1046A000FEF716FC2046656001F02AFD0223237008
:1046B000FEF716FB002383F3118838BD0248FEF78E
:1046C00007FCE4E7F0060108E0060108AFF300800C
:1046D0002DE9F043002818BF002983B0884607461B
:1046E000144632D03B78022B02D01A48FEF7F0FB7A
:1046F000194D07F1080916E0E4B183F31188FEF7BC
:10470000D7FA21464846EE68FFF702F8421C14D05B
:10471000631C1EBFEB68C3EB0606A419FEF7E0FAA4
:10472000002383F311883846414601F071FD2023B0
:104730000028E1D103B0BDE8F0830190FEF7D0FA84
:10474000002383F311880198F4E70448FEF7C0FBC7
:10475000C8E700BF3C0701087C1600201C070108C1
:1047600010B5044620B12046BDE8104001F080BDE0
:104770000148FEF7ADFBF6E75C070108AFF30080E8
:104780002DE9F043002818BF002983B0884607466A
:10479000144632D03B78022B02D01A48FEF798FB21
:1047A000194D07F1140916E0E4B183F31188FEF7FF
:1047B0007FFA21464846EE68FEF7AAFF431C14D054
:1047C000611C1EBFEB68C3EB0606A419FEF788FA4E
:1047D000002383F311883846414601F079FD2023F8
:1047E0000028E1D103B0BDE8F0830190FEF778FA2C
:1047F000002383F311880198F4E70448FEF768FB6F
:10480000C8E700BFA00701087C1600208007010848
:1048100010B5044620B12046BDE8104001F098BD17
:104820000148FEF755FBF6E7C0070108AFF300802B
:1048300010B5044650B12378022B02D00548FEF78C
:1048400047FB2046BDE8104001F0AABD0248FEF734
:104850003FFBF0E7F8070108E0070108AFF300802D
:104860000C30FFF735BB00BFAFF30080AFF3008023
:104870000C304FF0FF33FFF72BBB00BFAFF30080CE
:104880003030FFF705BC00BFAFF30080AFF300800E
:1048900030304FF0FF33FFF7FBBB00BFAFF30080BA
:1048A0000C30FFF7E5BA00BFAFF30080AFF3008034
:1048B0000C304FF0FF31FFF7DBBA00BFAFF30080E1
:1048C0003030FFF785BB00BFAFF30080AFF300804F
:1048D00030304FF0FF32FFF77BBB00BFAFF30080FB
:1048E00003F0CEB9AFF30080AFF30080AFF30080E8
:1048F00070B540F670030546C0F60103044645F85E
:10490000043B82B0656001250B46164604F1540154
:104910001022257200F10C000094FFF759FA009460
:1049200004F1300004F1640110223346FFF720FB4C
:1049300002B070BDAFF30080AFF30080AFF3008032
:1049400038B504460D46FEF763FAD4B163693BB14E
:1049500004F10C002946FFF763FA00280BDB38BD91
:10496000201D0421FFF7C4F804F10C002946FFF7CD
:1049700057FA0028F3DA201D8021BDE83840FFF700
:10498000B7B80248FEF7A4FAE0E700BF48080108FC
:1049900070B5046AD4F854321B681A78042A00D01F
:1049A00070BD9D8905F00205ADB2002DF8D1216CD6
:1049B000E26BA36B8A1AD61AF2D0FEF791F92B4656
:1049C00083F31188D4F8542233461068012104F18E
:1049D000300200F0ADFA202383F31188FEF768F966
:1049E000D4F8543218680121BDE8704000F0D0BA04
:1049F000F8B5046AD4F854321A681378042B00D03E
:104A0000F8BDD589536905F00205ADB25E8A002D67
:104A1000F6D1E769A2696369BF1AFF1ABE42EFD8EF
:104A2000FEF75EF92B4683F31188D4F85422B7FBC6
:104A3000F6F306FB03F31068012104F10C0200F009
:104A400067FA202383F31188FEF732F9D4F8543241
:104A500018680121BDE8F84000F07ABAAFF3008091
:104A60000C30FFF735BA00BFAFF30080AFF3008022
:104A70000C304FF0FF33FFF72BBA00BFAFF30080CD
:104A80003030FFF705BB00BFAFF30080AFF300800D
:104A900030304FF0FF33FFF7FBBA00BFAFF30080B9
:104AA0000C30FFF7E5B900BFAFF30080AFF3008033
:104AB0000C304FF0FF31FFF7DBB900BFAFF30080E0
:104AC0003030FFF785BA00BFAFF30080AFF300804E
:104AD00030304FF0FF32FFF77BBA00BFAFF30080FA
:104AE000704700BFAFF30080AFF30080AFF30080EA
:104AF00030B540F6C0030546C0F60103044645F84C
:104B0000043B83B0656044F6F113012504F15401C0
:104B1000257200F10C004FF48072C0F6000300947F
:104B2000FFF756F944F69113009404F1300004F5B0
:104B3000AA714FF48072C0F60003FFF719FA03B0B0
:104B400030BD00BFAFF30080AFF30080AFF3008053
:104B500038B504460D46B8B1202383F31188FEF71B
:104B6000A7F8237A013B012B02D90948FEF7B0F9D7
:104B70002B68C4F854529C6002232372FEF7B0F8ED
:104B8000002383F3118838BD0248FEF7A1F9E3E75B
:104B9000A008010890080108AFF30080AFF300807F
:104BA00070B5856805F10C0604463046FFF720F91C
:104BB00005F13000FFF7ECF9281D0121FEF798FF01
:104BC00063690121204632465B8A00F0A1F9204644
:104BD0000121BDE8704000F0BBB900BFAFF3008019
:104BE00090F8303003F06003202B01D00020704794
:104BF00090F83130212B03D0222B09D0202BF5D176
:104C0000064B4362072383620023C362012070477F
:104C1000002343628362C362012070474810002072
:104C2000F8B5846805460E46202383F31188FEF705
:104C300077F80821201DFEF75BFF216CE26BA36B68
:104C40008A1AD71A24D1331D55F8233059691A8A84
:104C50004B68013A12EA030705D0FEF779F8002302
:104C600083F31188F8BDFEF773F83B4683F3118890
:104C70002846314604F1300200F05AF9202383F32C
:104C80001188FEF74DF82846314600F081F9E4E737
:104C9000FEF75EF8002383F311883B46E8E700BF88
:104CA0002DE9F041202384680546884683F3118866
:104CB000FEF736F80421201DFEF71AFF6969E7693F
:104CC000A26963694E8ABF1AFF1ABE4217D8FEF75F
:104CD0003FF8002383F31188B7FBF6F306FB03F3D9
:104CE0002846414604F10C0200F012F9202383F318
:104CF0001188FEF715F82846414600F029F9FEF71D
:104D000027F8002383F31188BDE8F081AFF300801A
:104D1000704700BFAFF30080AFF30080AFF30080B7
:104D200002F0BEBEAFF30080AFF30080AFF30080AF
:104D3000002301220270436083600C30FEF788BDBF
:104D40004FF48053CEF200035B688360704700BF6E
:104D50004FF48053CEF20003094A5B68816810B4B7
:104D60001468C2685B1A1B1B9342836088BFC360D0
:104D700003D80269934238BF036110BC704700BF7B
:104D8000D0160020AFF30080AFF30080AFF30080B7
:104D900010B541F2D06486B0C2F200040022226055
:104DA00004924FF480534FF0FF320592CEF200038D
:104DB00044F64152C0F600025B68019244F651523B
:104DC000C0F6000201A803930292FFF7C1FF039B04
:104DD000236006B010BD00BFAFF30080AFF30080CA
:104DE00002F0EEBBAFF30080AFF30080AFF30080C2
:104DF000002301220270436083608381C381704776
:104E0000002818BF002970B50E4604461CD0202388
:104E100083F31188FDF74CFF2378013B012B02D966
:104E20000B48FEF755F80025204666602561656150
:104E3000A561E56102F0ECFB02232370FDF750FF52
:104E40002B4683F3118870BD0248FEF741F8DEE778
:104E50001009010800090108AFF30080AFF30080DA
:104E6000F8B5044615460E46FDF7D2FF002C18BFD4
:104E7000002D20D02378042B02D01148FEF728F80B
:104E8000371D54F8273013B10E48FEF721F8686932
:104E900018B100211022FBF76BFAA86918B10021A4
:104EA0001022FBF765FA2046314644F82750BDE84A
:104EB000F84002F09DBC0448FEF70AF8DAE700BFAC
:104EC00054090108700901083C090108AFF300808A
:104ED00030B40C1D002550F82440A4692560E26020
:104EE0006360A56030BC02F063BD00BFAFF300801B
:104EF00030B40C1D002550F8244064692560E26040
:104F00006360A56030BC02F06BBD00BFAFF30080F2
:104F100030B40C1D012550F82440A46963600023BF
:104F20002560E260A36030BC02F042BDAFF30080B8
:104F300030B40C1D012550F82440646963600023DF
:104F40002560E260A36030BC02F04ABDAFF3008090
:104F500070B504460D46FDF75BFF94B1E38943FA53
:104F600005F010F0010601D0012070BD012202FA07
:104F700005F213432046E381294602F051FD3046F5
:104F800070BD0248FDF7A4FFE8E700BFC4090108AF
:104F900070B504460D46FDF73BFF94B1A38943FA73
:104FA00005F010F0010601D0012070BD012202FAC7
:104FB00005F213432046A381294602F039FD30460D
:104FC00070BD0248FDF784FFE8E700BFDC09010877
:104FD00010B40346002202240470028783F83A20AA
:104FE00080F83B208281C281026142618261C2619C
:104FF00083F8202010BC02F07BBB00BFAFF3008021
:10500000F8B50023044680F8203000F1300202F0A9
:10501000BFFC63689B68002B2DD02046984750B397
:10502000A56A94F8303094F8371094F8362042EAA4
:105030000122AA423CBF1546A26213F0800F2B4604
:1050400040F08780002D6DD1042284F82020204676
:1050500029462A46FFF74CFF202383F31188FDF7EA
:105060005FFE29462046FFF793FFFDF771FE2B46B2
:1050700083F31188F8BD94F8303013F0600711D035
:105080000021204602F0F4FC2046002102F0E8FC5A
:1050900063681B6813B1204605219847052384F8EF
:1050A0002030F8BD94F8316003F07F0242EA062612
:1050B000B6F5407F00F0038117DDB6F5C06F00F054
:1050C000958075DDB6F5106F00F0BE8040F60242A7
:1050D000964200F08480B6F5006FD1D1012504F12D
:1050E0003B026262A562E7629DE7022E00F0BE808D
:1050F00070DDB6F5807F00F09280B6F5817FBFD17C
:1051000094F83220002ABBD194F8342012F00F0119
:105110005BD01206204600F1018102F0B1FC94F848
:10512000303052E0032284F8202020460021626AB9
:10513000FFF7CEFE202383F31188FDF7F1FD002158
:105140002046FFF705FFFDF703FE002383F31188D8
:10515000F8BDB5B1012284F8202020460021626A02
:10516000FFF7C6FE202383F31188FDF7D9FD002148
:105170002046FFF70DFFFDF7EBFD002383F31188B9
:10518000F8BD022284F82020204629462A46FFF74F
:105190009FFE202383F31188FDF7C2FD2946204698
:1051A000FFF7D6FEFDF7D4FD2B4683F31188F8BD3B
:1051B00040F20232964270D0B6F5A06F7FF460AF35
:1051C000228EB2F5A06F00F0978000256562A5627F
:1051D000E56228E7002E30D0012E7FF451AF544A0B
:1051E000022562620022A562E2621CE7626894F80E
:1051F000356094F83430556894F8331094F83220C0
:10520000204643EA0623A84700283FF439AF436805
:1052100005686362A562E76294F8303003E794F8AA
:105220003220012A7FF42CAF228F676222F0020223
:105230002287A762E7623D46F5E6022504F13802BF
:105240006262A562E662EEE694F8322084F83B20C2
:10525000002A42D10322227062681268002AB4D068
:1052600020460221904794F83030AEE794F834108D
:1052700011F0800F204601F00F0131D102F068FBE0
:10528000012831D002287FF4FBAE2A4BA062636272
:10529000E76294F830300546C5E694F83220002ADB
:1052A0007FF4EEAE94F8342012F00F018DD0130687
:1052B000204638D402F0D4FB94F8303085E794F8D7
:1052C0003220012A7FF4DCAE228F676242F00202B4
:1052D0002287A762E7623D46A5E604222270BBE76B
:1052E00002F046FB0128CDD1134BA6626362E76250
:1052F00094F83030354696E694F83230204684F8FB
:105300003A3002F065FA63681B6813B12046012148
:105310009847032294F83030227056E702F0B8FB29
:1053200094F8303051E702F0A3FB94F830304CE7AA
:10533000E0080108F0080108300A0108AFF3008016
:1053400038B590F82030012B044619D0042B10D02A
:10535000002102F08DFB2046002102F081FB6368F2
:105360001B6813B1204605219847052384F8203097
:1053700038BDC36A03B19847002384F8203038BD94
:1053800090F8372090F83630856A43EA0223AB4222
:1053900006D903691B8AB5FBF3F203FB1255BDB1B5
:1053A000002102220B4684F8202020460A46FFF7FF
:1053B0008FFD202383F31188FDF7B2FC00212046E6
:1053C000FFF7C6FDFDF7C4FC002383F3118838BD49
:1053D0002B4629462A46FFF78BFD202383F31188AD
:1053E000FDF79EFC29462046FFF7D2FDFDF7B0FCF5
:1053F0002B4683F3118838BDAFF30080AFF30080F4
:1054000090F82030022B10B504462AD0032B11D07F
:105410000021204602F02CFB2046002102F020FB58
:1054200063681B6813B1204605219847052384F85B
:10543000203010BD002104220B4680F820200A46AF
:10544000FFF756FD202383F31188FDF769FC002147
:105450002046FFF79DFDFDF77BFC002383F31188B9
:1054600010BD03699B699B68002BD1D1C36A03B14E
:105470009847002384F8203010BD00BFAFF30080B0
:1054800010B5FDF785FC4FF4C043C4F20203084891
:10549000196802683D2401F03D019C600AB1406832
:1054A0009047FDF795FCBDE81040FDF7B1BA00BF8D
:1054B000D4160020AFF30080AFF30080AFF300807C
:1054C00010B5FDF765FC4FF4C043C4F20203094870
:1054D0001968826889094FF4746401F03D019C6089
:1054E0000AB1C0689047FDF773FCBDE81040FDF7B6
:1054F0008FBA00BFD4160020AFF30080AFF3008056
:1055000010B5FDF745FC4FF4C043C4F2020309484F
:1055100019680269090C4FF4741401F03D019C6094
:105520000AB140699047FDF753FCBDE81040FDF714
:105530006FBA00BFD4160020AFF30080AFF3008035
:1055400010B5FDF725FC4FF4C043C4F2020309482F
:1055500019688269890D4FF0746401F03D019C6007
:105560000AB1C0699047FDF733FCBDE81040FDF774
:105570004FBA00BFD4160020AFF30080AFF3008015
:1055800010B5FDF705FC4FF4C043C4F20203084810
:105590005968026A3D2401F03D01DC600AB1406AAD
:1055A0009047FDF715FCBDE81040FDF731BA00BF8C
:1055B000D4160020AFF30080AFF30080AFF300807B
:1055C00010B5FDF7E5FB4FF4C043C4F202030948F0
:1055D0005968826A89094FF4746401F03D01DC6006
:1055E0000AB1C06A9047FDF7F3FBBDE81040FDF734
:1055F0000FBA00BFD4160020AFF30080AFF30080D5
:1056000010B5FDF7C5FB4FF4C043C4F202030948CF
:105610005968026B090C4FF4741401F03D01DC6011
:105620000AB1406B9047FDF7D3FBBDE81040FDF792
:10563000EFB900BFD4160020AFF30080AFF30080B5
:1056400010B5FDF7A5FB4FF4C043C4F202030948AF
:105650005968826B890D4FF0746401F03D01DC6084
:105660000AB1C06B9047FDF7B3FBBDE81040FDF7F2
:10567000CFB900BFD4160020AFF30080AFF3008095
:1056800010B5FDF785FB4FF4C843C4F20203084888
:105690001968026C3D2401F03D019C600AB1406C28
:1056A0009047FDF795FBBDE81040FDF7B1B900BF8D
:1056B000D4160020AFF30080AFF30080AFF300807A
:1056C00010B5FDF765FB4FF4C843C4F20203094867
:1056D0001968826C89094FF4746401F03D019C6083
:1056E0000AB1C06C9047FDF773FBBDE81040FDF7B1
:1056F0008FB900BFD4160020AFF30080AFF3008055
:1057000010B5FDF745FB4FF4C843C4F20203094846
:105710001968026D090C4FF4741401F03D019C608E
:105720000AB1406D9047FDF753FBBDE81040FDF70F
:105730006FB900BFD4160020AFF30080AFF3008034
:1057400010B5FDF725FB4FF4C843C4F20203094826
:105750001968826D890D4FF0746401F03D019C6001
:105760000AB1C06D9047FDF733FBBDE81040FDF76F
:105770004FB900BFD4160020AFF30080AFF3008014
:1057800010B5FDF705FB4FF4C843C4F20203084807
:105790005968026E3D2401F03D01DC600AB1406EA3
:1057A0009047FDF715FBBDE81040FDF731B900BF8C
:1057B000D4160020AFF30080AFF30080AFF3008079
:1057C00010B5FDF7E5FA4FF4C843C4F202030948E7
:1057D0005968826E89094FF4746401F03D01DC6000
:1057E0000AB1C06E9047FDF7F3FABDE81040FDF72F
:1057F0000FB900BFD4160020AFF30080AFF30080D4
:1058000010B5FDF7C5FA4FF4C843C4F202030948C6
:105810005968026F090C4FF4741401F03D01DC600B
:105820000AB1406F9047FDF7D3FABDE81040FDF78D
:10583000EFB800BFD4160020AFF30080AFF30080B4
:1058400010B5FDF7A5FA4FF4C843C4F202030948A6
:105850005968826F890D4FF0746401F03D01DC607E
:105860000AB1C06F9047FDF7B3FABDE81040FDF7ED
:10587000CFB800BFD4160020AFF30080AFF3008094
:105880000F4B30B400220F4D0F4C1A6011461346D7
:10589000E8580C330160A1500832C02BF8D14FF406
:1058A000C0414FF4C842C4F20201C4F202024FF0F8
:1058B000FF338B60CB609360D36030BC704700BF18
:1058C00054170020800A0108D4160020AFF300808E
:1058D0002DE9F041064684B0002848D0294F747A5B
:1058E0003868012505FA04FC1CEA000F18BF284699
:1058F0003AD1254D4CEA000005EBC40810F0FF0F2B
:10590000C8F804301CBF4FF46053C4F2020338607F
:1059100045F834201EBF1C6B44F400141C6310F4C3
:105920007F4F1CBF4FF46053C4F2020334681EBFA4
:10593000186B40F480001863236823F00103236090
:10594000236813F00105FBD1307A73683D2707FA0D
:1059500000F01860212325601046636122B1B07AFF
:105960000901FDF7C5F8284604B0BDE8F0810748F5
:10597000039102920193FDF7ABFA019B029A0399FE
:10598000ACE700BF54170020D4160020400A0108DD
:105990004FF46053C4F202030022196941F001017F
:1059A00030B419611A61596941F0010159615A61B4
:1059B000996941F0010199619A61196A19621A6243
:1059C0005D6A4EF21001CEF2000149F23F04C0F2CE
:1059D00002044EF6F05045F001055D62CEF2000083
:1059E0005A624C6007248A600C60C4684FF480518E
:1059F000CEF2000144F08074C460086840F00100F9
:105A00000860186C4FF4E041C4F2000140F080508F
:105A10001864086840F480700860196F01F44071E0
:105A2000B1F5007F1EBF4FF4803119671A674FF43C
:105A30006053C4F202031A6F120407D41A6F42F4BF
:105A400000721A671A6F42F400421A6730BCFFF7FF
:105A500017BF00BFAFF30080AFF30080AFF300804B
:105A60004FF46052C4F202024FF4E043C4F2000368
:105A70004FF0805111644FF480411A461960536809
:105A80005904FCD54FF46053C4F2020319461A6856
:105A900042F001021A600A684FF460539207C4F2A0
:105AA0000203F8D51A6842F480321A6019460A686F
:105AB0004FF460539003C4F20203F8D55A6F42F0DA
:105AC00001025A6719464A6F4FF460539207C4F2B5
:105AD0000203F8D545F20C42C0F240725A601A68CF
